{
  "_format": "hh-sol-artifact-1",
  "contractName": "Greeter",
  "sourceName": "contracts/Greeter.sol",
  "abi": [
    {
      "inputs": [
        {
          "internalType": "string",
          "name": "_greeting",
          "type": "string"
        }
      ],
      "stateMutability": "nonpayable",
      "type": "constructor"
    },
    {
      "inputs": [],
      "name": "greet",
      "outputs": [
        {
          "internalType": "string[]",
          "name": "",
          "type": "string[]"
        }
      ],
      "stateMutability": "view",
      "type": "function"
    },
    {
      "inputs": [],
      "name": "passwordFetch",
      "outputs": [
        {
          "internalType": "string[]",
          "name": "",
          "type": "string[]"
        }
      ],
      "stateMutability": "view",
      "type": "function"
    },
    {
      "inputs": [
        {
          "internalType": "string",
          "name": "_greeting",
          "type": "string"
        }
      ],
      "name": "setGreeting",
      "outputs": [],
      "stateMutability": "nonpayable",
      "type": "function"
    }
  ],
  "bytecode": "0x60806040523480156200001157600080fd5b5060405162000eac38038062000eac833981810160405281019062000037919062000278565b6200006760405180606001604052806022815260200162000e8a60229139826200008760201b6200033c1760201c565b80600290805190602001906200007f92919062000156565b5050620004c5565b620001298282604051602401620000a0929190620002fe565b6040516020818303038152906040527f4b5c4277000000000000000000000000000000000000000000000000000000007bffffffffffffffffffffffffffffffffffffffffffffffffffffffff19166020820180517bffffffffffffffffffffffffffffffffffffffffffffffffffffffff83818316178352505050506200012d60201b60201c565b5050565b60008151905060006a636f6e736f6c652e6c6f679050602083016000808483855afa5050505050565b8280546200016490620003ea565b90600052602060002090601f016020900481019282620001885760008555620001d4565b82601f10620001a357805160ff1916838001178555620001d4565b82800160010185558215620001d4579182015b82811115620001d3578251825591602001919060010190620001b6565b5b509050620001e39190620001e7565b5090565b5b8082111562000202576000816000905550600101620001e8565b5090565b60006200021d620002178462000362565b62000339565b9050828152602081018484840111156200023657600080fd5b62000243848285620003b4565b509392505050565b600082601f8301126200025d57600080fd5b81516200026f84826020860162000206565b91505092915050565b6000602082840312156200028b57600080fd5b600082015167ffffffffffffffff811115620002a657600080fd5b620002b4848285016200024b565b91505092915050565b6000620002ca8262000398565b620002d68185620003a3565b9350620002e8818560208601620003b4565b620002f381620004b4565b840191505092915050565b600060408201905081810360008301526200031a8185620002bd565b90508181036020830152620003308184620002bd565b90509392505050565b60006200034562000358565b905062000353828262000420565b919050565b6000604051905090565b600067ffffffffffffffff82111562000380576200037f62000485565b5b6200038b82620004b4565b9050602081019050919050565b600081519050919050565b600082825260208201905092915050565b60005b83811015620003d4578082015181840152602081019050620003b7565b83811115620003e4576000848401525b50505050565b600060028204905060018216806200040357607f821691505b602082108114156200041a576200041962000456565b5b50919050565b6200042b82620004b4565b810181811067ffffffffffffffff821117156200044d576200044c62000485565b5b80604052505050565b7f4e487b7100000000000000000000000000000000000000000000000000000000600052602260045260246000fd5b7f4e487b7100000000000000000000000000000000000000000000000000000000600052604160045260246000fd5b6000601f19601f8301169050919050565b6109b580620004d56000396000f3fe608060405234801561001057600080fd5b50600436106100415760003560e01c8063a413686214610046578063cfae321714610062578063f77a0af514610080575b600080fd5b610060600480360381019061005b91906105ab565b61009e565b005b61006a61018a565b60405161007791906106e7565b60405180910390f35b610088610263565b60405161009591906106e7565b60405180910390f35b61014b60405180606001604052806023815260200161095d60239139600280546100c79061088a565b80601f01602080910402602001604051908101604052809291908181526020018280546100f39061088a565b80156101405780601f1061011557610100808354040283529160200191610140565b820191906000526020600020905b81548152906001019060200180831161012357829003601f168201915b5050505050836103d8565b6000819080600181540180825580915050600190039060005260206000200160009091909190915090805190602001906101869291906104a0565b5050565b60606000805480602002602001604051908101604052809291908181526020016000905b8282101561025a5783829060005260206000200180546101cd9061088a565b80601f01602080910402602001604051908101604052809291908181526020018280546101f99061088a565b80156102465780601f1061021b57610100808354040283529160200191610246565b820191906000526020600020905b81548152906001019060200180831161022957829003601f168201915b5050505050815260200190600101906101ae565b50505050905090565b60606001805480602002602001604051908101604052809291908181526020016000905b828210156103335783829060005260206000200180546102a69061088a565b80601f01602080910402602001604051908101604052809291908181526020018280546102d29061088a565b801561031f5780601f106102f45761010080835404028352916020019161031f565b820191906000526020600020905b81548152906001019060200180831161030257829003601f168201915b505050505081526020019060010190610287565b50505050905090565b6103d48282604051602401610352929190610709565b6040516020818303038152906040527f4b5c4277000000000000000000000000000000000000000000000000000000007bffffffffffffffffffffffffffffffffffffffffffffffffffffffff19166020820180517bffffffffffffffffffffffffffffffffffffffffffffffffffffffff8381831617835250505050610477565b5050565b6104728383836040516024016103f093929190610740565b6040516020818303038152906040527f2ced7cef000000000000000000000000000000000000000000000000000000007bffffffffffffffffffffffffffffffffffffffffffffffffffffffff19166020820180517bffffffffffffffffffffffffffffffffffffffffffffffffffffffff8381831617835250505050610477565b505050565b60008151905060006a636f6e736f6c652e6c6f679050602083016000808483855afa5050505050565b8280546104ac9061088a565b90600052602060002090601f0160209004810192826104ce5760008555610515565b82601f106104e757805160ff1916838001178555610515565b82800160010185558215610515579182015b828111156105145782518255916020019190600101906104f9565b5b5090506105229190610526565b5090565b5b8082111561053f576000816000905550600101610527565b5090565b6000610556610551846107b1565b61078c565b90508281526020810184848401111561056e57600080fd5b610579848285610848565b509392505050565b600082601f83011261059257600080fd5b81356105a2848260208601610543565b91505092915050565b6000602082840312156105bd57600080fd5b600082013567ffffffffffffffff8111156105d757600080fd5b6105e384828501610581565b91505092915050565b60006105f88383610675565b905092915050565b600061060b826107f2565b6106158185610815565b935083602082028501610627856107e2565b8060005b85811015610663578484038952815161064485826105ec565b945061064f83610808565b925060208a0199505060018101905061062b565b50829750879550505050505092915050565b6000610680826107fd565b61068a8185610826565b935061069a818560208601610857565b6106a38161094b565b840191505092915050565b60006106b9826107fd565b6106c38185610837565b93506106d3818560208601610857565b6106dc8161094b565b840191505092915050565b600060208201905081810360008301526107018184610600565b905092915050565b6000604082019050818103600083015261072381856106ae565b9050818103602083015261073781846106ae565b90509392505050565b6000606082019050818103600083015261075a81866106ae565b9050818103602083015261076e81856106ae565b9050818103604083015261078281846106ae565b9050949350505050565b60006107966107a7565b90506107a282826108bc565b919050565b6000604051905090565b600067ffffffffffffffff8211156107cc576107cb61091c565b5b6107d58261094b565b9050602081019050919050565b6000819050602082019050919050565b600081519050919050565b600081519050919050565b6000602082019050919050565b600082825260208201905092915050565b600082825260208201905092915050565b600082825260208201905092915050565b82818337600083830152505050565b60005b8381101561087557808201518184015260208101905061085a565b83811115610884576000848401525b50505050565b600060028204905060018216806108a257607f821691505b602082108114156108b6576108b56108ed565b5b50919050565b6108c58261094b565b810181811067ffffffffffffffff821117156108e4576108e361091c565b5b80604052505050565b7f4e487b7100000000000000000000000000000000000000000000000000000000600052602260045260246000fd5b7f4e487b7100000000000000000000000000000000000000000000000000000000600052604160045260246000fd5b6000601f19601f830116905091905056fe4368616e67696e67206772656574696e672066726f6d202725732720746f2027257327a26469706673582212205cf4c79abe4722aa325a76b5ca4715b41568d1979031919f8b3f48fe7b5e71ba64736f6c634300080300334465706c6f79696e67206120477265657465722077697468206772656574696e673a",
  "linkReferences": {},
  "deployedLinkReferences": {}
}