{
  "_format": "hh-sol-artifact-1",
  "contractName": "Todolist",
  "sourceName": "contracts/Todolist.sol",
  "abi": [
    {
      "inputs": [
        {
          "internalType": "string",
          "name": "_todo",
          "type": "string"
        }
      ],
      "stateMutability": "nonpayable",
      "type": "constructor"
    },
    {
      "inputs": [
        {
          "internalType": "string",
          "name": "_todo",
          "type": "string"
        }
      ],
      "name": "deleteTodo",
      "outputs": [],
      "stateMutability": "nonpayable",
      "type": "function"
    },
    {
      "inputs": [
        {
          "internalType": "uint256",
          "name": "_id",
          "type": "uint256"
        }
      ],
      "name": "getTodoItem",
      "outputs": [
        {
          "internalType": "string",
          "name": "",
          "type": "string"
        }
      ],
      "stateMutability": "view",
      "type": "function"
    },
    {
      "inputs": [],
      "name": "getTodoListLength",
      "outputs": [
        {
          "internalType": "uint256",
          "name": "",
          "type": "uint256"
        }
      ],
      "stateMutability": "view",
      "type": "function"
    },
    {
      "inputs": [
        {
          "internalType": "uint256",
          "name": "_id",
          "type": "uint256"
        }
      ],
      "name": "isTodoClosed",
      "outputs": [
        {
          "internalType": "bool",
          "name": "",
          "type": "bool"
        }
      ],
      "stateMutability": "view",
      "type": "function"
    },
    {
      "inputs": [
        {
          "internalType": "string",
          "name": "_todo",
          "type": "string"
        }
      ],
      "name": "setTodo",
      "outputs": [],
      "stateMutability": "nonpayable",
      "type": "function"
    },
    {
      "inputs": [],
      "name": "todoCount",
      "outputs": [
        {
          "internalType": "uint256",
          "name": "",
          "type": "uint256"
        }
      ],
      "stateMutability": "view",
      "type": "function"
    },
    {
      "inputs": [
        {
          "internalType": "uint256",
          "name": "",
          "type": "uint256"
        }
      ],
      "name": "todos",
      "outputs": [
        {
          "internalType": "uint256",
          "name": "id",
          "type": "uint256"
        },
        {
          "internalType": "string",
          "name": "text",
          "type": "string"
        },
        {
          "internalType": "bool",
          "name": "closed",
          "type": "bool"
        }
      ],
      "stateMutability": "view",
      "type": "function"
    }
  ],
  "bytecode": "0x60806040523480156200001157600080fd5b50604051620012333803806200123383398181016040528101906200003791906200034a565b60006002819055506200006f6040518060600160405280602381526020016200121060239139826200015960201b620005221760201c565b80600190805190602001906200008792919062000228565b5060006040518060600160405280600081526020016040518060400160405280600d81526020017f68656c6c6f20486172646861740000000000000000000000000000000000000081525081526020016001151581525090806001815401808255809150506001900390600052602060002090600302016000909190919091506000820151816000015560208201518160010190805190602001906200012f92919062000228565b5060408201518160020160006101000a81548160ff02191690831515021790555050505062000597565b620001fb828260405160240162000172929190620003d0565b6040516020818303038152906040527f4b5c4277000000000000000000000000000000000000000000000000000000007bffffffffffffffffffffffffffffffffffffffffffffffffffffffff19166020820180517bffffffffffffffffffffffffffffffffffffffffffffffffffffffff8381831617835250505050620001ff60201b60201c565b5050565b60008151905060006a636f6e736f6c652e6c6f679050602083016000808483855afa5050505050565b8280546200023690620004bc565b90600052602060002090601f0160209004810192826200025a5760008555620002a6565b82601f106200027557805160ff1916838001178555620002a6565b82800160010185558215620002a6579182015b82811115620002a557825182559160200191906001019062000288565b5b509050620002b59190620002b9565b5090565b5b80821115620002d4576000816000905550600101620002ba565b5090565b6000620002ef620002e98462000434565b6200040b565b9050828152602081018484840111156200030857600080fd5b6200031584828562000486565b509392505050565b600082601f8301126200032f57600080fd5b815162000341848260208601620002d8565b91505092915050565b6000602082840312156200035d57600080fd5b600082015167ffffffffffffffff8111156200037857600080fd5b62000386848285016200031d565b91505092915050565b60006200039c826200046a565b620003a8818562000475565b9350620003ba81856020860162000486565b620003c58162000586565b840191505092915050565b60006040820190508181036000830152620003ec81856200038f565b905081810360208301526200040281846200038f565b90509392505050565b6000620004176200042a565b9050620004258282620004f2565b919050565b6000604051905090565b600067ffffffffffffffff82111562000452576200045162000557565b5b6200045d8262000586565b9050602081019050919050565b600081519050919050565b600082825260208201905092915050565b60005b83811015620004a657808201518184015260208101905062000489565b83811115620004b6576000848401525b50505050565b60006002820490506001821680620004d557607f821691505b60208210811415620004ec57620004eb62000528565b5b50919050565b620004fd8262000586565b810181811067ffffffffffffffff821117156200051f576200051e62000557565b5b80604052505050565b7f4e487b7100000000000000000000000000000000000000000000000000000000600052602260045260246000fd5b7f4e487b7100000000000000000000000000000000000000000000000000000000600052604160045260246000fd5b6000601f19601f8301169050919050565b610c6980620005a76000396000f3fe608060405234801561001057600080fd5b506004361061007d5760003560e01c8063bc8bc2b41161005b578063bc8bc2b4146100ec578063d241acea1461011e578063f53e74091461013a578063fe0dee171461016a5761007d565b8063316fd44114610082578063749e7d16146100b2578063b9abac74146100d0575b600080fd5b61009c600480360381019061009791906108a0565b610188565b6040516100a9919061093b565b60405180910390f35b6100ba610265565b6040516100c791906109c4565b60405180910390f35b6100ea60048036038101906100e5919061085f565b6102b6565b005b610106600480360381019061010191906108a0565b6103ab565b604051610115939291906109df565b60405180910390f35b6101386004803603810190610133919061085f565b61047a565b005b610154600480360381019061014f91906108a0565b6104bb565b6040516101619190610920565b60405180910390f35b61017261051c565b60405161017f91906109c4565b60405180910390f35b6060600082815481106101c4577f4e487b7100000000000000000000000000000000000000000000000000000000600052603260045260246000fd5b906000526020600020906003020160010180546101e090610b1b565b80601f016020809104026020016040519081016040528092919081815260200182805461020c90610b1b565b80156102595780601f1061022e57610100808354040283529160200191610259565b820191906000526020600020905b81548152906001019060200180831161023c57829003601f168201915b50505050509050919050565b60006102ab6040518060400160405280601b81526020017f4172726179206861742065696e65204c61656e676520766f6e3a2000000000008152506000805490506105be565b600080549050905090565b6102f56040518060400160405280601681526020017f657874656e6420746f646f6c69737420776974683a200000000000000000000081525082610522565b6102fd61071c565b600160008054905061030f9190610a8f565b8160000181815250508181602001819052506000816040019015159081151581525050600081908060018154018082558091505060019003906000526020600020906003020160009091909190915060008201518160000155602082015181600101908051906020019061038492919061073f565b5060408201518160020160006101000a81548160ff02191690831515021790555050505050565b600081815481106103bb57600080fd5b90600052602060002090600302016000915090508060000154908060010180546103e490610b1b565b80601f016020809104026020016040519081016040528092919081815260200182805461041090610b1b565b801561045d5780601f106104325761010080835404028352916020019161045d565b820191906000526020600020905b81548152906001019060200180831161044057829003601f168201915b5050505050908060020160009054906101000a900460ff16905083565b6104b86040518060400160405280600b81526020017f64656c65746520544f444f00000000000000000000000000000000000000000081525061065a565b50565b60008082815481106104f6577f4e487b7100000000000000000000000000000000000000000000000000000000600052603260045260246000fd5b906000526020600020906003020160020160009054906101000a900460ff169050919050565b60025481565b6105ba828260405160240161053892919061095d565b6040516020818303038152906040527f4b5c4277000000000000000000000000000000000000000000000000000000007bffffffffffffffffffffffffffffffffffffffffffffffffffffffff19166020820180517bffffffffffffffffffffffffffffffffffffffffffffffffffffffff83818316178352505050506106f3565b5050565b61065682826040516024016105d4929190610994565b6040516020818303038152906040527f9710a9d0000000000000000000000000000000000000000000000000000000007bffffffffffffffffffffffffffffffffffffffffffffffffffffffff19166020820180517bffffffffffffffffffffffffffffffffffffffffffffffffffffffff83818316178352505050506106f3565b5050565b6106f08160405160240161066e919061093b565b6040516020818303038152906040527f41304fac000000000000000000000000000000000000000000000000000000007bffffffffffffffffffffffffffffffffffffffffffffffffffffffff19166020820180517bffffffffffffffffffffffffffffffffffffffffffffffffffffffff83818316178352505050506106f3565b50565b60008151905060006a636f6e736f6c652e6c6f679050602083016000808483855afa5050505050565b604051806060016040528060008152602001606081526020016000151581525090565b82805461074b90610b1b565b90600052602060002090601f01602090048101928261076d57600085556107b4565b82601f1061078657805160ff19168380011785556107b4565b828001600101855582156107b4579182015b828111156107b3578251825591602001919060010190610798565b5b5090506107c191906107c5565b5090565b5b808211156107de5760008160009055506001016107c6565b5090565b60006107f56107f084610a42565b610a1d565b90508281526020810184848401111561080d57600080fd5b610818848285610ad9565b509392505050565b600082601f83011261083157600080fd5b81356108418482602086016107e2565b91505092915050565b60008135905061085981610c1c565b92915050565b60006020828403121561087157600080fd5b600082013567ffffffffffffffff81111561088b57600080fd5b61089784828501610820565b91505092915050565b6000602082840312156108b257600080fd5b60006108c08482850161084a565b91505092915050565b6108d281610ac3565b82525050565b60006108e382610a73565b6108ed8185610a7e565b93506108fd818560208601610ae8565b61090681610c0b565b840191505092915050565b61091a81610acf565b82525050565b600060208201905061093560008301846108c9565b92915050565b6000602082019050818103600083015261095581846108d8565b905092915050565b6000604082019050818103600083015261097781856108d8565b9050818103602083015261098b81846108d8565b90509392505050565b600060408201905081810360008301526109ae81856108d8565b90506109bd6020830184610911565b9392505050565b60006020820190506109d96000830184610911565b92915050565b60006060820190506109f46000830186610911565b8181036020830152610a0681856108d8565b9050610a1560408301846108c9565b949350505050565b6000610a27610a38565b9050610a338282610b4d565b919050565b6000604051905090565b600067ffffffffffffffff821115610a5d57610a5c610bdc565b5b610a6682610c0b565b9050602081019050919050565b600081519050919050565b600082825260208201905092915050565b6000610a9a82610acf565b9150610aa583610acf565b925082821015610ab857610ab7610b7e565b5b828203905092915050565b60008115159050919050565b6000819050919050565b82818337600083830152505050565b60005b83811015610b06578082015181840152602081019050610aeb565b83811115610b15576000848401525b50505050565b60006002820490506001821680610b3357607f821691505b60208210811415610b4757610b46610bad565b5b50919050565b610b5682610c0b565b810181811067ffffffffffffffff82111715610b7557610b74610bdc565b5b80604052505050565b7f4e487b7100000000000000000000000000000000000000000000000000000000600052601160045260246000fd5b7f4e487b7100000000000000000000000000000000000000000000000000000000600052602260045260246000fd5b7f4e487b7100000000000000000000000000000000000000000000000000000000600052604160045260246000fd5b6000601f19601f8301169050919050565b610c2581610acf565b8114610c3057600080fd5b5056fea264697066735822122024358b6c7adf99eb20cd6dc08bf7bb7e66e93b4fde04f33c18111dab65e8b24764736f6c634300080300334465706c6f79696e67206120546f646f4c6973742077697468206772656574696e673a",
  "linkReferences": {},
  "deployedLinkReferences": {}
}