{
  "_format": "hh-sol-artifact-1",
  "contractName": "Todolist",
  "sourceName": "contracts/Todolist.sol",
  "abi": [
    {
      "inputs": [
        {
          "internalType": "string",
          "name": "_todo",
          "type": "string"
        }
      ],
      "stateMutability": "nonpayable",
      "type": "constructor"
    },
    {
      "inputs": [
        {
          "internalType": "string",
          "name": "_todo",
          "type": "string"
        }
      ],
      "name": "setTodo",
      "outputs": [],
      "stateMutability": "nonpayable",
      "type": "function"
    },
    {
      "inputs": [],
      "name": "todo",
      "outputs": [
        {
          "internalType": "string[]",
          "name": "",
          "type": "string[]"
        }
      ],
      "stateMutability": "view",
      "type": "function"
    }
  ],
  "bytecode": "0x60806040523480156200001157600080fd5b5060405162000c2f38038062000c2f833981810160405281019062000037919062000278565b6200006760405180606001604052806023815260200162000c0c60239139826200008760201b620001cc1760201c565b80600190805190602001906200007f92919062000156565b5050620004c5565b620001298282604051602401620000a0929190620002fe565b6040516020818303038152906040527f4b5c4277000000000000000000000000000000000000000000000000000000007bffffffffffffffffffffffffffffffffffffffffffffffffffffffff19166020820180517bffffffffffffffffffffffffffffffffffffffffffffffffffffffff83818316178352505050506200012d60201b60201c565b5050565b60008151905060006a636f6e736f6c652e6c6f679050602083016000808483855afa5050505050565b8280546200016490620003ea565b90600052602060002090601f016020900481019282620001885760008555620001d4565b82601f10620001a357805160ff1916838001178555620001d4565b82800160010185558215620001d4579182015b82811115620001d3578251825591602001919060010190620001b6565b5b509050620001e39190620001e7565b5090565b5b8082111562000202576000816000905550600101620001e8565b5090565b60006200021d620002178462000362565b62000339565b9050828152602081018484840111156200023657600080fd5b62000243848285620003b4565b509392505050565b600082601f8301126200025d57600080fd5b81516200026f84826020860162000206565b91505092915050565b6000602082840312156200028b57600080fd5b600082015167ffffffffffffffff811115620002a657600080fd5b620002b4848285016200024b565b91505092915050565b6000620002ca8262000398565b620002d68185620003a3565b9350620002e8818560208601620003b4565b620002f381620004b4565b840191505092915050565b600060408201905081810360008301526200031a8185620002bd565b90508181036020830152620003308184620002bd565b90509392505050565b60006200034562000358565b905062000353828262000420565b919050565b6000604051905090565b600067ffffffffffffffff82111562000380576200037f62000485565b5b6200038b82620004b4565b9050602081019050919050565b600081519050919050565b600082825260208201905092915050565b60005b83811015620003d4578082015181840152602081019050620003b7565b83811115620003e4576000848401525b50505050565b600060028204905060018216806200040357607f821691505b602082108114156200041a576200041962000456565b5b50919050565b6200042b82620004b4565b810181811067ffffffffffffffff821117156200044d576200044c62000485565b5b80604052505050565b7f4e487b7100000000000000000000000000000000000000000000000000000000600052602260045260246000fd5b7f4e487b7100000000000000000000000000000000000000000000000000000000600052604160045260246000fd5b6000601f19601f8301169050919050565b61073780620004d56000396000f3fe608060405234801561001057600080fd5b50600436106100365760003560e01c8063b47f18a11461003b578063b9abac7414610059575b600080fd5b610043610075565b60405161005091906104d8565b60405180910390f35b610073600480360381019061006e919061039c565b61014e565b005b60606000805480602002602001604051908101604052809291908181526020016000905b828210156101455783829060005260206000200180546100b89061062f565b80601f01602080910402602001604051908101604052809291908181526020018280546100e49061062f565b80156101315780601f1061010657610100808354040283529160200191610131565b820191906000526020600020905b81548152906001019060200180831161011457829003601f168201915b505050505081526020019060010190610099565b50505050905090565b61018d6040518060400160405280601681526020017f657874656e6420746f646f6c69737420776974683a2000000000000000000000815250826101cc565b6000819080600181540180825580915050600190039060005260206000200160009091909190915090805190602001906101c8929190610291565b5050565b61026482826040516024016101e29291906104fa565b6040516020818303038152906040527f4b5c4277000000000000000000000000000000000000000000000000000000007bffffffffffffffffffffffffffffffffffffffffffffffffffffffff19166020820180517bffffffffffffffffffffffffffffffffffffffffffffffffffffffff8381831617835250505050610268565b5050565b60008151905060006a636f6e736f6c652e6c6f679050602083016000808483855afa5050505050565b82805461029d9061062f565b90600052602060002090601f0160209004810192826102bf5760008555610306565b82601f106102d857805160ff1916838001178555610306565b82800160010185558215610306579182015b828111156103055782518255916020019190600101906102ea565b5b5090506103139190610317565b5090565b5b80821115610330576000816000905550600101610318565b5090565b600061034761034284610556565b610531565b90508281526020810184848401111561035f57600080fd5b61036a8482856105ed565b509392505050565b600082601f83011261038357600080fd5b8135610393848260208601610334565b91505092915050565b6000602082840312156103ae57600080fd5b600082013567ffffffffffffffff8111156103c857600080fd5b6103d484828501610372565b91505092915050565b60006103e98383610466565b905092915050565b60006103fc82610597565b61040681856105ba565b93508360208202850161041885610587565b8060005b85811015610454578484038952815161043585826103dd565b9450610440836105ad565b925060208a0199505060018101905061041c565b50829750879550505050505092915050565b6000610471826105a2565b61047b81856105cb565b935061048b8185602086016105fc565b610494816106f0565b840191505092915050565b60006104aa826105a2565b6104b481856105dc565b93506104c48185602086016105fc565b6104cd816106f0565b840191505092915050565b600060208201905081810360008301526104f281846103f1565b905092915050565b60006040820190508181036000830152610514818561049f565b90508181036020830152610528818461049f565b90509392505050565b600061053b61054c565b90506105478282610661565b919050565b6000604051905090565b600067ffffffffffffffff821115610571576105706106c1565b5b61057a826106f0565b9050602081019050919050565b6000819050602082019050919050565b600081519050919050565b600081519050919050565b6000602082019050919050565b600082825260208201905092915050565b600082825260208201905092915050565b600082825260208201905092915050565b82818337600083830152505050565b60005b8381101561061a5780820151818401526020810190506105ff565b83811115610629576000848401525b50505050565b6000600282049050600182168061064757607f821691505b6020821081141561065b5761065a610692565b5b50919050565b61066a826106f0565b810181811067ffffffffffffffff82111715610689576106886106c1565b5b80604052505050565b7f4e487b7100000000000000000000000000000000000000000000000000000000600052602260045260246000fd5b7f4e487b7100000000000000000000000000000000000000000000000000000000600052604160045260246000fd5b6000601f19601f830116905091905056fea264697066735822122041bc97fa38f6b2ef893fb906956f18f8e7809cc96cad444c53e39e046c22b53464736f6c634300080300334465706c6f79696e67206120546f646f4c6973742077697468206772656574696e673a",
  "linkReferences": {},
  "deployedLinkReferences": {}
}