{
  "_format": "hh-sol-artifact-1",
  "contractName": "Todolist",
  "sourceName": "contracts/Todolist.sol",
  "abi": [
    {
      "inputs": [
        {
          "internalType": "string",
          "name": "_todo",
          "type": "string"
        }
      ],
      "stateMutability": "nonpayable",
      "type": "constructor"
    },
    {
      "inputs": [
        {
          "internalType": "string",
          "name": "_todo",
          "type": "string"
        }
      ],
      "name": "deleteTodo",
      "outputs": [],
      "stateMutability": "nonpayable",
      "type": "function"
    },
    {
      "inputs": [
        {
          "internalType": "string",
          "name": "_todo",
          "type": "string"
        }
      ],
      "name": "setTodo",
      "outputs": [],
      "stateMutability": "nonpayable",
      "type": "function"
    },
    {
      "inputs": [],
      "name": "todo",
      "outputs": [
        {
          "internalType": "string[]",
          "name": "",
          "type": "string[]"
        }
      ],
      "stateMutability": "view",
      "type": "function"
    }
  ],
  "bytecode": "0x60806040523480156200001157600080fd5b5060405162000d5238038062000d52833981810160405281019062000037919062000278565b6200006760405180606001604052806023815260200162000d2f60239139826200008760201b620002341760201c565b80600190805190602001906200007f92919062000156565b5050620004c5565b620001298282604051602401620000a0929190620002fe565b6040516020818303038152906040527f4b5c4277000000000000000000000000000000000000000000000000000000007bffffffffffffffffffffffffffffffffffffffffffffffffffffffff19166020820180517bffffffffffffffffffffffffffffffffffffffffffffffffffffffff83818316178352505050506200012d60201b60201c565b5050565b60008151905060006a636f6e736f6c652e6c6f679050602083016000808483855afa5050505050565b8280546200016490620003ea565b90600052602060002090601f016020900481019282620001885760008555620001d4565b82601f10620001a357805160ff1916838001178555620001d4565b82800160010185558215620001d4579182015b82811115620001d3578251825591602001919060010190620001b6565b5b509050620001e39190620001e7565b5090565b5b8082111562000202576000816000905550600101620001e8565b5090565b60006200021d620002178462000362565b62000339565b9050828152602081018484840111156200023657600080fd5b62000243848285620003b4565b509392505050565b600082601f8301126200025d57600080fd5b81516200026f84826020860162000206565b91505092915050565b6000602082840312156200028b57600080fd5b600082015167ffffffffffffffff811115620002a657600080fd5b620002b4848285016200024b565b91505092915050565b6000620002ca8262000398565b620002d68185620003a3565b9350620002e8818560208601620003b4565b620002f381620004b4565b840191505092915050565b600060408201905081810360008301526200031a8185620002bd565b90508181036020830152620003308184620002bd565b90509392505050565b60006200034562000358565b905062000353828262000420565b919050565b6000604051905090565b600067ffffffffffffffff82111562000380576200037f62000485565b5b6200038b82620004b4565b9050602081019050919050565b600081519050919050565b600082825260208201905092915050565b60005b83811015620003d4578082015181840152602081019050620003b7565b83811115620003e4576000848401525b50505050565b600060028204905060018216806200040357607f821691505b602082108114156200041a576200041962000456565b5b50919050565b6200042b82620004b4565b810181811067ffffffffffffffff821117156200044d576200044c62000485565b5b80604052505050565b7f4e487b7100000000000000000000000000000000000000000000000000000000600052602260045260246000fd5b7f4e487b7100000000000000000000000000000000000000000000000000000000600052604160045260246000fd5b6000601f19601f8301169050919050565b61085a80620004d56000396000f3fe608060405234801561001057600080fd5b50600436106100415760003560e01c8063b47f18a114610046578063b9abac7414610064578063d241acea14610080575b600080fd5b61004e61009c565b60405161005b91906105d9565b60405180910390f35b61007e6004803603810190610079919061049d565b610175565b005b61009a6004803603810190610095919061049d565b6101f3565b005b60606000805480602002602001604051908101604052809291908181526020016000905b8282101561016c5783829060005260206000200180546100df90610752565b80601f016020809104026020016040519081016040528092919081815260200182805461010b90610752565b80156101585780601f1061012d57610100808354040283529160200191610158565b820191906000526020600020905b81548152906001019060200180831161013b57829003601f168201915b5050505050815260200190600101906100c0565b50505050905090565b6101b46040518060400160405280601681526020017f657874656e6420746f646f6c69737420776974683a200000000000000000000081525082610234565b6000819080600181540180825580915050600190039060005260206000200160009091909190915090805190602001906101ef929190610392565b5050565b6102316040518060400160405280600b81526020017f64656c65746520544f444f0000000000000000000000000000000000000000008152506102d0565b50565b6102cc828260405160240161024a92919061061d565b6040516020818303038152906040527f4b5c4277000000000000000000000000000000000000000000000000000000007bffffffffffffffffffffffffffffffffffffffffffffffffffffffff19166020820180517bffffffffffffffffffffffffffffffffffffffffffffffffffffffff8381831617835250505050610369565b5050565b610366816040516024016102e491906105fb565b6040516020818303038152906040527f41304fac000000000000000000000000000000000000000000000000000000007bffffffffffffffffffffffffffffffffffffffffffffffffffffffff19166020820180517bffffffffffffffffffffffffffffffffffffffffffffffffffffffff8381831617835250505050610369565b50565b60008151905060006a636f6e736f6c652e6c6f679050602083016000808483855afa5050505050565b82805461039e90610752565b90600052602060002090601f0160209004810192826103c05760008555610407565b82601f106103d957805160ff1916838001178555610407565b82800160010185558215610407579182015b828111156104065782518255916020019190600101906103eb565b5b5090506104149190610418565b5090565b5b80821115610431576000816000905550600101610419565b5090565b600061044861044384610679565b610654565b90508281526020810184848401111561046057600080fd5b61046b848285610710565b509392505050565b600082601f83011261048457600080fd5b8135610494848260208601610435565b91505092915050565b6000602082840312156104af57600080fd5b600082013567ffffffffffffffff8111156104c957600080fd5b6104d584828501610473565b91505092915050565b60006104ea8383610567565b905092915050565b60006104fd826106ba565b61050781856106dd565b935083602082028501610519856106aa565b8060005b85811015610555578484038952815161053685826104de565b9450610541836106d0565b925060208a0199505060018101905061051d565b50829750879550505050505092915050565b6000610572826106c5565b61057c81856106ee565b935061058c81856020860161071f565b61059581610813565b840191505092915050565b60006105ab826106c5565b6105b581856106ff565b93506105c581856020860161071f565b6105ce81610813565b840191505092915050565b600060208201905081810360008301526105f381846104f2565b905092915050565b6000602082019050818103600083015261061581846105a0565b905092915050565b6000604082019050818103600083015261063781856105a0565b9050818103602083015261064b81846105a0565b90509392505050565b600061065e61066f565b905061066a8282610784565b919050565b6000604051905090565b600067ffffffffffffffff821115610694576106936107e4565b5b61069d82610813565b9050602081019050919050565b6000819050602082019050919050565b600081519050919050565b600081519050919050565b6000602082019050919050565b600082825260208201905092915050565b600082825260208201905092915050565b600082825260208201905092915050565b82818337600083830152505050565b60005b8381101561073d578082015181840152602081019050610722565b8381111561074c576000848401525b50505050565b6000600282049050600182168061076a57607f821691505b6020821081141561077e5761077d6107b5565b5b50919050565b61078d82610813565b810181811067ffffffffffffffff821117156107ac576107ab6107e4565b5b80604052505050565b7f4e487b7100000000000000000000000000000000000000000000000000000000600052602260045260246000fd5b7f4e487b7100000000000000000000000000000000000000000000000000000000600052604160045260246000fd5b6000601f19601f830116905091905056fea264697066735822122097586ac687327b217af1e1cb3090d1e1fe3f0f38b8d6d5a5393bb00f9d39d6c264736f6c634300080300334465706c6f79696e67206120546f646f4c6973742077697468206772656574696e673a",
  "linkReferences": {},
  "deployedLinkReferences": {}
}