{
  "_format": "hh-sol-artifact-1",
  "contractName": "Todolist",
  "sourceName": "contracts/Todolist.sol",
  "abi": [
    {
      "inputs": [
        {
          "internalType": "string",
          "name": "_todo",
          "type": "string"
        }
      ],
      "stateMutability": "nonpayable",
      "type": "constructor"
    },
    {
      "inputs": [
        {
          "internalType": "string",
          "name": "_todo",
          "type": "string"
        }
      ],
      "name": "deleteTodo",
      "outputs": [],
      "stateMutability": "nonpayable",
      "type": "function"
    },
    {
      "inputs": [
        {
          "internalType": "uint256",
          "name": "_id",
          "type": "uint256"
        }
      ],
      "name": "getTodoItem",
      "outputs": [
        {
          "internalType": "string",
          "name": "",
          "type": "string"
        }
      ],
      "stateMutability": "view",
      "type": "function"
    },
    {
      "inputs": [],
      "name": "getTodoListLength",
      "outputs": [
        {
          "internalType": "uint256",
          "name": "",
          "type": "uint256"
        }
      ],
      "stateMutability": "view",
      "type": "function"
    },
    {
      "inputs": [
        {
          "internalType": "string",
          "name": "_todo",
          "type": "string"
        }
      ],
      "name": "setTodo",
      "outputs": [],
      "stateMutability": "nonpayable",
      "type": "function"
    },
    {
      "inputs": [],
      "name": "todoCount",
      "outputs": [
        {
          "internalType": "uint256",
          "name": "",
          "type": "uint256"
        }
      ],
      "stateMutability": "view",
      "type": "function"
    },
    {
      "inputs": [
        {
          "internalType": "uint256",
          "name": "",
          "type": "uint256"
        }
      ],
      "name": "todos",
      "outputs": [
        {
          "internalType": "uint256",
          "name": "id",
          "type": "uint256"
        },
        {
          "internalType": "string",
          "name": "text",
          "type": "string"
        }
      ],
      "stateMutability": "view",
      "type": "function"
    }
  ],
  "bytecode": "0x60806040523480156200001157600080fd5b506040516200155b3803806200155b83398181016040528101906200003791906200072f565b60006002819055506200006f6040518060600160405280602381526020016200153860239139826200029660201b6200043f1760201c565b8060019080519060200190620000879291906200060d565b5060006040518060400160405280600081526020016040518060400160405280600d81526020017f68656c6c6f2048617264686174000000000000000000000000000000000000008152508152509080600181540180825580915050600190039060005260206000209060020201600090919091909150600082015181600001556020820151816001019080519060200190620001269291906200060d565b50505060006040518060400160405280600181526020016040518060400160405280600d81526020017f68656c6c6f204c616c616c616c000000000000000000000000000000000000008152508152509080600181540180825580915050600190039060005260206000209060020201600090919091909150600082015181600001556020820151816001019080519060200190620001c79291906200060d565b50505060006040518060400160405280600281526020016040518060400160405280600e81526020017f68656c6c6f20536f6c69646974790000000000000000000000000000000000008152508152509080600181540180825580915050600190039060005260206000209060020201600090919091909150600082015181600001556020820151816001019080519060200190620002689291906200060d565b5050506200027b6200033c60201b60201c565b506200028e60006200039a60201b60201c565b5050620009ef565b620003388282604051602401620002af929190620007ea565b6040516020818303038152906040527f4b5c4277000000000000000000000000000000000000000000000000000000007bffffffffffffffffffffffffffffffffffffffffffffffffffffffff19166020820180517bffffffffffffffffffffffffffffffffffffffffffffffffffffffff83818316178352505050506200049b60201b60201c565b5050565b60006200038f6040518060400160405280601b81526020017f4172726179206861742065696e65204c61656e676520766f6e3a200000000000815250600080549050620004c460201b620004db1760201c565b600080549050905090565b60608060008381548110620003d8577f4e487b7100000000000000000000000000000000000000000000000000000000600052603260045260246000fd5b90600052602060002090600202016001018054620003f69062000914565b80601f0160208091040260200160405190810160405280929190818152602001828054620004249062000914565b8015620004755780601f10620004495761010080835404028352916020019162000475565b820191906000526020600020905b8154815290600101906020018083116200045757829003601f168201915b5050505050905062000492816200056a60201b620005771760201c565b80915050919050565b60008151905060006a636f6e736f6c652e6c6f679050602083016000808483855afa5050505050565b620005668282604051602401620004dd92919062000825565b6040516020818303038152906040527f9710a9d0000000000000000000000000000000000000000000000000000000007bffffffffffffffffffffffffffffffffffffffffffffffffffffffff19166020820180517bffffffffffffffffffffffffffffffffffffffffffffffffffffffff83818316178352505050506200049b60201b60201c565b5050565b6200060a81604051602401620005819190620007c6565b6040516020818303038152906040527f41304fac000000000000000000000000000000000000000000000000000000007bffffffffffffffffffffffffffffffffffffffffffffffffffffffff19166020820180517bffffffffffffffffffffffffffffffffffffffffffffffffffffffff83818316178352505050506200049b60201b60201c565b50565b8280546200061b9062000914565b90600052602060002090601f0160209004810192826200063f57600085556200068b565b82601f106200065a57805160ff19168380011785556200068b565b828001600101855582156200068b579182015b828111156200068a5782518255916020019190600101906200066d565b5b5090506200069a91906200069e565b5090565b5b80821115620006b95760008160009055506001016200069f565b5090565b6000620006d4620006ce8462000882565b62000859565b905082815260208101848484011115620006ed57600080fd5b620006fa848285620008de565b509392505050565b600082601f8301126200071457600080fd5b815162000726848260208601620006bd565b91505092915050565b6000602082840312156200074257600080fd5b600082015167ffffffffffffffff8111156200075d57600080fd5b6200076b8482850162000702565b91505092915050565b60006200078182620008b8565b6200078d8185620008c3565b93506200079f818560208601620008de565b620007aa81620009de565b840191505092915050565b620007c081620008d4565b82525050565b60006020820190508181036000830152620007e2818462000774565b905092915050565b6000604082019050818103600083015262000806818562000774565b905081810360208301526200081c818462000774565b90509392505050565b6000604082019050818103600083015262000841818562000774565b9050620008526020830184620007b5565b9392505050565b60006200086562000878565b90506200087382826200094a565b919050565b6000604051905090565b600067ffffffffffffffff821115620008a0576200089f620009af565b5b620008ab82620009de565b9050602081019050919050565b600081519050919050565b600082825260208201905092915050565b6000819050919050565b60005b83811015620008fe578082015181840152602081019050620008e1565b838111156200090e576000848401525b50505050565b600060028204905060018216806200092d57607f821691505b6020821081141562000944576200094362000980565b5b50919050565b6200095582620009de565b810181811067ffffffffffffffff82111715620009775762000976620009af565b5b80604052505050565b7f4e487b7100000000000000000000000000000000000000000000000000000000600052602260045260246000fd5b7f4e487b7100000000000000000000000000000000000000000000000000000000600052604160045260246000fd5b6000601f19601f8301169050919050565b610b3980620009ff6000396000f3fe608060405234801561001057600080fd5b50600436106100625760003560e01c8063316fd44114610067578063749e7d1614610097578063b9abac74146100b5578063bc8bc2b4146100d1578063d241acea14610102578063fe0dee171461011e575b600080fd5b610081600480360381019061007c91906107b4565b61013c565b60405161008e9190610825565b60405180910390f35b61009f610227565b6040516100ac91906108ae565b60405180910390f35b6100cf60048036038101906100ca9190610773565b610278565b005b6100eb60048036038101906100e691906107b4565b61033c565b6040516100f99291906108c9565b60405180910390f35b61011c60048036038101906101179190610773565b6103f8565b005b610126610439565b60405161013391906108ae565b60405180910390f35b60608060008381548110610179577f4e487b7100000000000000000000000000000000000000000000000000000000600052603260045260246000fd5b90600052602060002090600202016001018054610195906109eb565b80601f01602080910402602001604051908101604052809291908181526020018280546101c1906109eb565b801561020e5780601f106101e35761010080835404028352916020019161020e565b820191906000526020600020905b8154815290600101906020018083116101f157829003601f168201915b5050505050905061021e81610577565b80915050919050565b600061026d6040518060400160405280601b81526020017f4172726179206861742065696e65204c61656e676520766f6e3a2000000000008152506000805490506104db565b600080549050905090565b6102b76040518060400160405280601681526020017f657874656e6420746f646f6c69737420776974683a20000000000000000000008152508261043f565b6102bf610639565b60016000805490506102d1919061096b565b8160000181815250508181602001819052506000819080600181540180825580915050600190039060005260206000209060020201600090919091909150600082015181600001556020820151816001019080519060200190610335929190610653565b5050505050565b6000818154811061034c57600080fd5b9060005260206000209060020201600091509050806000015490806001018054610375906109eb565b80601f01602080910402602001604051908101604052809291908181526020018280546103a1906109eb565b80156103ee5780601f106103c3576101008083540402835291602001916103ee565b820191906000526020600020905b8154815290600101906020018083116103d157829003601f168201915b5050505050905082565b6104366040518060400160405280600b81526020017f64656c65746520544f444f000000000000000000000000000000000000000000815250610577565b50565b60025481565b6104d78282604051602401610455929190610847565b6040516020818303038152906040527f4b5c4277000000000000000000000000000000000000000000000000000000007bffffffffffffffffffffffffffffffffffffffffffffffffffffffff19166020820180517bffffffffffffffffffffffffffffffffffffffffffffffffffffffff8381831617835250505050610610565b5050565b61057382826040516024016104f192919061087e565b6040516020818303038152906040527f9710a9d0000000000000000000000000000000000000000000000000000000007bffffffffffffffffffffffffffffffffffffffffffffffffffffffff19166020820180517bffffffffffffffffffffffffffffffffffffffffffffffffffffffff8381831617835250505050610610565b5050565b61060d8160405160240161058b9190610825565b6040516020818303038152906040527f41304fac000000000000000000000000000000000000000000000000000000007bffffffffffffffffffffffffffffffffffffffffffffffffffffffff19166020820180517bffffffffffffffffffffffffffffffffffffffffffffffffffffffff8381831617835250505050610610565b50565b60008151905060006a636f6e736f6c652e6c6f679050602083016000808483855afa5050505050565b604051806040016040528060008152602001606081525090565b82805461065f906109eb565b90600052602060002090601f01602090048101928261068157600085556106c8565b82601f1061069a57805160ff19168380011785556106c8565b828001600101855582156106c8579182015b828111156106c75782518255916020019190600101906106ac565b5b5090506106d591906106d9565b5090565b5b808211156106f25760008160009055506001016106da565b5090565b60006107096107048461091e565b6108f9565b90508281526020810184848401111561072157600080fd5b61072c8482856109a9565b509392505050565b600082601f83011261074557600080fd5b81356107558482602086016106f6565b91505092915050565b60008135905061076d81610aec565b92915050565b60006020828403121561078557600080fd5b600082013567ffffffffffffffff81111561079f57600080fd5b6107ab84828501610734565b91505092915050565b6000602082840312156107c657600080fd5b60006107d48482850161075e565b91505092915050565b60006107e88261094f565b6107f2818561095a565b93506108028185602086016109b8565b61080b81610adb565b840191505092915050565b61081f8161099f565b82525050565b6000602082019050818103600083015261083f81846107dd565b905092915050565b6000604082019050818103600083015261086181856107dd565b9050818103602083015261087581846107dd565b90509392505050565b6000604082019050818103600083015261089881856107dd565b90506108a76020830184610816565b9392505050565b60006020820190506108c36000830184610816565b92915050565b60006040820190506108de6000830185610816565b81810360208301526108f081846107dd565b90509392505050565b6000610903610914565b905061090f8282610a1d565b919050565b6000604051905090565b600067ffffffffffffffff82111561093957610938610aac565b5b61094282610adb565b9050602081019050919050565b600081519050919050565b600082825260208201905092915050565b60006109768261099f565b91506109818361099f565b92508282101561099457610993610a4e565b5b828203905092915050565b6000819050919050565b82818337600083830152505050565b60005b838110156109d65780820151818401526020810190506109bb565b838111156109e5576000848401525b50505050565b60006002820490506001821680610a0357607f821691505b60208210811415610a1757610a16610a7d565b5b50919050565b610a2682610adb565b810181811067ffffffffffffffff82111715610a4557610a44610aac565b5b80604052505050565b7f4e487b7100000000000000000000000000000000000000000000000000000000600052601160045260246000fd5b7f4e487b7100000000000000000000000000000000000000000000000000000000600052602260045260246000fd5b7f4e487b7100000000000000000000000000000000000000000000000000000000600052604160045260246000fd5b6000601f19601f8301169050919050565b610af58161099f565b8114610b0057600080fd5b5056fea264697066735822122008e7ed8ef199b2051314892d17990d3c1622ebb5f6f64cb28cefd585c5420a4164736f6c634300080300334465706c6f79696e67206120546f646f4c6973742077697468206772656574696e673a",
  "linkReferences": {},
  "deployedLinkReferences": {}
}